{
  "_format": "hh-sol-artifact-1",
  "contractName": "StrategyMasterchef",
  "sourceName": "contracts/Vault/StrategyMasterchef.sol",
  "abi": [
    {
      "anonymous": false,
      "inputs": [
        {
          "indexed": true,
          "internalType": "address",
          "name": "previousOwner",
          "type": "address"
        },
        {
          "indexed": true,
          "internalType": "address",
          "name": "newOwner",
          "type": "address"
        }
      ],
      "name": "OwnershipTransferred",
      "type": "event"
    },
    {
      "anonymous": false,
      "inputs": [
        {
          "indexed": false,
          "internalType": "address",
          "name": "account",
          "type": "address"
        }
      ],
      "name": "Paused",
      "type": "event"
    },
    {
      "anonymous": false,
      "inputs": [
        {
          "indexed": false,
          "internalType": "uint256",
          "name": "_controllerFee",
          "type": "uint256"
        },
        {
          "indexed": false,
          "internalType": "uint256",
          "name": "_rewardRate",
          "type": "uint256"
        },
        {
          "indexed": false,
          "internalType": "uint256",
          "name": "_buyBackRate",
          "type": "uint256"
        },
        {
          "indexed": false,
          "internalType": "uint256",
          "name": "_withdrawFeeFactor",
          "type": "uint256"
        },
        {
          "indexed": false,
          "internalType": "uint256",
          "name": "_slippageFactor",
          "type": "uint256"
        },
        {
          "indexed": false,
          "internalType": "address",
          "name": "_uniRouterAddress",
          "type": "address"
        }
      ],
      "name": "SetSettings",
      "type": "event"
    },
    {
      "anonymous": false,
      "inputs": [
        {
          "indexed": false,
          "internalType": "address",
          "name": "account",
          "type": "address"
        }
      ],
      "name": "Unpaused",
      "type": "event"
    },
    {
      "inputs": [],
      "name": "buyBackAddress",
      "outputs": [
        {
          "internalType": "address",
          "name": "",
          "type": "address"
        }
      ],
      "stateMutability": "view",
      "type": "function"
    },
    {
      "inputs": [],
      "name": "buyBackRate",
      "outputs": [
        {
          "internalType": "uint256",
          "name": "",
          "type": "uint256"
        }
      ],
      "stateMutability": "view",
      "type": "function"
    },
    {
      "inputs": [],
      "name": "controllerFee",
      "outputs": [
        {
          "internalType": "uint256",
          "name": "",
          "type": "uint256"
        }
      ],
      "stateMutability": "view",
      "type": "function"
    },
    {
      "inputs": [],
      "name": "convertDustToEarned",
      "outputs": [],
      "stateMutability": "nonpayable",
      "type": "function"
    },
    {
      "inputs": [
        {
          "internalType": "address",
          "name": "_userAddress",
          "type": "address"
        },
        {
          "internalType": "uint256",
          "name": "_wantAmt",
          "type": "uint256"
        }
      ],
      "name": "deposit",
      "outputs": [
        {
          "internalType": "uint256",
          "name": "",
          "type": "uint256"
        }
      ],
      "stateMutability": "nonpayable",
      "type": "function"
    },
    {
      "inputs": [],
      "name": "earn",
      "outputs": [],
      "stateMutability": "nonpayable",
      "type": "function"
    },
    {
      "inputs": [],
      "name": "earnedAddress",
      "outputs": [
        {
          "internalType": "address",
          "name": "",
          "type": "address"
        }
      ],
      "stateMutability": "view",
      "type": "function"
    },
    {
      "inputs": [
        {
          "internalType": "uint256",
          "name": "",
          "type": "uint256"
        }
      ],
      "name": "earnedToFishPath",
      "outputs": [
        {
          "internalType": "address",
          "name": "",
          "type": "address"
        }
      ],
      "stateMutability": "view",
      "type": "function"
    },
    {
      "inputs": [
        {
          "internalType": "uint256",
          "name": "",
          "type": "uint256"
        }
      ],
      "name": "earnedToToken0Path",
      "outputs": [
        {
          "internalType": "address",
          "name": "",
          "type": "address"
        }
      ],
      "stateMutability": "view",
      "type": "function"
    },
    {
      "inputs": [
        {
          "internalType": "uint256",
          "name": "",
          "type": "uint256"
        }
      ],
      "name": "earnedToToken1Path",
      "outputs": [
        {
          "internalType": "address",
          "name": "",
          "type": "address"
        }
      ],
      "stateMutability": "view",
      "type": "function"
    },
    {
      "inputs": [
        {
          "internalType": "uint256",
          "name": "",
          "type": "uint256"
        }
      ],
      "name": "earnedToUsdcPath",
      "outputs": [
        {
          "internalType": "address",
          "name": "",
          "type": "address"
        }
      ],
      "stateMutability": "view",
      "type": "function"
    },
    {
      "inputs": [
        {
          "internalType": "uint256",
          "name": "",
          "type": "uint256"
        }
      ],
      "name": "earnedToWmaticPath",
      "outputs": [
        {
          "internalType": "address",
          "name": "",
          "type": "address"
        }
      ],
      "stateMutability": "view",
      "type": "function"
    },
    {
      "inputs": [],
      "name": "feeAddress",
      "outputs": [
        {
          "internalType": "address",
          "name": "",
          "type": "address"
        }
      ],
      "stateMutability": "view",
      "type": "function"
    },
    {
      "inputs": [],
      "name": "feeMax",
      "outputs": [
        {
          "internalType": "uint256",
          "name": "",
          "type": "uint256"
        }
      ],
      "stateMutability": "view",
      "type": "function"
    },
    {
      "inputs": [],
      "name": "feeMaxTotal",
      "outputs": [
        {
          "internalType": "uint256",
          "name": "",
          "type": "uint256"
        }
      ],
      "stateMutability": "view",
      "type": "function"
    },
    {
      "inputs": [],
      "name": "fishAddress",
      "outputs": [
        {
          "internalType": "address",
          "name": "",
          "type": "address"
        }
      ],
      "stateMutability": "view",
      "type": "function"
    },
    {
      "inputs": [],
      "name": "govAddress",
      "outputs": [
        {
          "internalType": "address",
          "name": "",
          "type": "address"
        }
      ],
      "stateMutability": "view",
      "type": "function"
    },
    {
      "inputs": [
        {
          "internalType": "address",
          "name": "_vaultChefAddress",
          "type": "address"
        },
        {
          "internalType": "address",
          "name": "_masterchefAddress",
          "type": "address"
        },
        {
          "internalType": "address",
          "name": "_uniRouterAddress",
          "type": "address"
        },
        {
          "internalType": "uint256",
          "name": "_pid",
          "type": "uint256"
        },
        {
          "internalType": "address",
          "name": "_wantAddress",
          "type": "address"
        },
        {
          "internalType": "address",
          "name": "_earnedAddress",
          "type": "address"
        },
        {
          "internalType": "address[]",
          "name": "_earnedToWmaticPath",
          "type": "address[]"
        },
        {
          "internalType": "address[]",
          "name": "_earnedToUsdcPath",
          "type": "address[]"
        },
        {
          "internalType": "address[]",
          "name": "_earnedToFishPath",
          "type": "address[]"
        },
        {
          "internalType": "address[]",
          "name": "_earnedToToken0Path",
          "type": "address[]"
        },
        {
          "internalType": "address[]",
          "name": "_earnedToToken1Path",
          "type": "address[]"
        },
        {
          "internalType": "address[]",
          "name": "_token0ToEarnedPath",
          "type": "address[]"
        },
        {
          "internalType": "address[]",
          "name": "_token1ToEarnedPath",
          "type": "address[]"
        }
      ],
      "name": "init",
      "outputs": [],
      "stateMutability": "nonpayable",
      "type": "function"
    },
    {
      "inputs": [],
      "name": "lastEarnBlock",
      "outputs": [
        {
          "internalType": "uint256",
          "name": "",
          "type": "uint256"
        }
      ],
      "stateMutability": "view",
      "type": "function"
    },
    {
      "inputs": [],
      "name": "masterchefAddress",
      "outputs": [
        {
          "internalType": "address",
          "name": "",
          "type": "address"
        }
      ],
      "stateMutability": "view",
      "type": "function"
    },
    {
      "inputs": [],
      "name": "owner",
      "outputs": [
        {
          "internalType": "address",
          "name": "",
          "type": "address"
        }
      ],
      "stateMutability": "view",
      "type": "function"
    },
    {
      "inputs": [],
      "name": "panic",
      "outputs": [],
      "stateMutability": "nonpayable",
      "type": "function"
    },
    {
      "inputs": [],
      "name": "pause",
      "outputs": [],
      "stateMutability": "nonpayable",
      "type": "function"
    },
    {
      "inputs": [],
      "name": "paused",
      "outputs": [
        {
          "internalType": "bool",
          "name": "",
          "type": "bool"
        }
      ],
      "stateMutability": "view",
      "type": "function"
    },
    {
      "inputs": [],
      "name": "pid",
      "outputs": [
        {
          "internalType": "uint256",
          "name": "",
          "type": "uint256"
        }
      ],
      "stateMutability": "view",
      "type": "function"
    },
    {
      "inputs": [],
      "name": "renounceOwnership",
      "outputs": [],
      "stateMutability": "nonpayable",
      "type": "function"
    },
    {
      "inputs": [],
      "name": "resetAllowances",
      "outputs": [],
      "stateMutability": "nonpayable",
      "type": "function"
    },
    {
      "inputs": [],
      "name": "rewardAddress",
      "outputs": [
        {
          "internalType": "address",
          "name": "",
          "type": "address"
        }
      ],
      "stateMutability": "view",
      "type": "function"
    },
    {
      "inputs": [],
      "name": "rewardRate",
      "outputs": [
        {
          "internalType": "uint256",
          "name": "",
          "type": "uint256"
        }
      ],
      "stateMutability": "view",
      "type": "function"
    },
    {
      "inputs": [
        {
          "internalType": "address",
          "name": "_govAddress",
          "type": "address"
        }
      ],
      "name": "setGov",
      "outputs": [],
      "stateMutability": "nonpayable",
      "type": "function"
    },
    {
      "inputs": [
        {
          "internalType": "uint256",
          "name": "_controllerFee",
          "type": "uint256"
        },
        {
          "internalType": "uint256",
          "name": "_rewardRate",
          "type": "uint256"
        },
        {
          "internalType": "uint256",
          "name": "_buyBackRate",
          "type": "uint256"
        },
        {
          "internalType": "uint256",
          "name": "_withdrawFeeFactor",
          "type": "uint256"
        },
        {
          "internalType": "uint256",
          "name": "_slippageFactor",
          "type": "uint256"
        },
        {
          "internalType": "address",
          "name": "_uniRouterAddress",
          "type": "address"
        }
      ],
      "name": "setSettings",
      "outputs": [],
      "stateMutability": "nonpayable",
      "type": "function"
    },
    {
      "inputs": [],
      "name": "sharesTotal",
      "outputs": [
        {
          "internalType": "uint256",
          "name": "",
          "type": "uint256"
        }
      ],
      "stateMutability": "view",
      "type": "function"
    },
    {
      "inputs": [],
      "name": "slippageFactor",
      "outputs": [
        {
          "internalType": "uint256",
          "name": "",
          "type": "uint256"
        }
      ],
      "stateMutability": "view",
      "type": "function"
    },
    {
      "inputs": [],
      "name": "slippageFactorUL",
      "outputs": [
        {
          "internalType": "uint256",
          "name": "",
          "type": "uint256"
        }
      ],
      "stateMutability": "view",
      "type": "function"
    },
    {
      "inputs": [],
      "name": "token0Address",
      "outputs": [
        {
          "internalType": "address",
          "name": "",
          "type": "address"
        }
      ],
      "stateMutability": "view",
      "type": "function"
    },
    {
      "inputs": [
        {
          "internalType": "uint256",
          "name": "",
          "type": "uint256"
        }
      ],
      "name": "token0ToEarnedPath",
      "outputs": [
        {
          "internalType": "address",
          "name": "",
          "type": "address"
        }
      ],
      "stateMutability": "view",
      "type": "function"
    },
    {
      "inputs": [],
      "name": "token1Address",
      "outputs": [
        {
          "internalType": "address",
          "name": "",
          "type": "address"
        }
      ],
      "stateMutability": "view",
      "type": "function"
    },
    {
      "inputs": [
        {
          "internalType": "uint256",
          "name": "",
          "type": "uint256"
        }
      ],
      "name": "token1ToEarnedPath",
      "outputs": [
        {
          "internalType": "address",
          "name": "",
          "type": "address"
        }
      ],
      "stateMutability": "view",
      "type": "function"
    },
    {
      "inputs": [
        {
          "internalType": "address",
          "name": "newOwner",
          "type": "address"
        }
      ],
      "name": "transferOwnership",
      "outputs": [],
      "stateMutability": "nonpayable",
      "type": "function"
    },
    {
      "inputs": [],
      "name": "uniRouterAddress",
      "outputs": [
        {
          "internalType": "address",
          "name": "",
          "type": "address"
        }
      ],
      "stateMutability": "view",
      "type": "function"
    },
    {
      "inputs": [],
      "name": "unpanic",
      "outputs": [],
      "stateMutability": "nonpayable",
      "type": "function"
    },
    {
      "inputs": [],
      "name": "unpause",
      "outputs": [],
      "stateMutability": "nonpayable",
      "type": "function"
    },
    {
      "inputs": [],
      "name": "usdcAddress",
      "outputs": [
        {
          "internalType": "address",
          "name": "",
          "type": "address"
        }
      ],
      "stateMutability": "view",
      "type": "function"
    },
    {
      "inputs": [],
      "name": "vaultChefAddress",
      "outputs": [
        {
          "internalType": "address",
          "name": "",
          "type": "address"
        }
      ],
      "stateMutability": "view",
      "type": "function"
    },
    {
      "inputs": [],
      "name": "vaultSharesTotal",
      "outputs": [
        {
          "internalType": "uint256",
          "name": "",
          "type": "uint256"
        }
      ],
      "stateMutability": "view",
      "type": "function"
    },
    {
      "inputs": [],
      "name": "wantAddress",
      "outputs": [
        {
          "internalType": "address",
          "name": "",
          "type": "address"
        }
      ],
      "stateMutability": "view",
      "type": "function"
    },
    {
      "inputs": [],
      "name": "wantLockedTotal",
      "outputs": [
        {
          "internalType": "uint256",
          "name": "",
          "type": "uint256"
        }
      ],
      "stateMutability": "view",
      "type": "function"
    },
    {
      "inputs": [
        {
          "internalType": "address",
          "name": "_userAddress",
          "type": "address"
        },
        {
          "internalType": "uint256",
          "name": "_wantAmt",
          "type": "uint256"
        }
      ],
      "name": "withdraw",
      "outputs": [
        {
          "internalType": "uint256",
          "name": "",
          "type": "uint256"
        }
      ],
      "stateMutability": "nonpayable",
      "type": "function"
    },
    {
      "inputs": [],
      "name": "withdrawFeeAddress",
      "outputs": [
        {
          "internalType": "address",
          "name": "",
          "type": "address"
        }
      ],
      "stateMutability": "view",
      "type": "function"
    },
    {
      "inputs": [],
      "name": "withdrawFeeFactor",
      "outputs": [
        {
          "internalType": "uint256",
          "name": "",
          "type": "uint256"
        }
      ],
      "stateMutability": "view",
      "type": "function"
    },
    {
      "inputs": [],
      "name": "withdrawFeeFactorLL",
      "outputs": [
        {
          "internalType": "uint256",
          "name": "",
          "type": "uint256"
        }
      ],
      "stateMutability": "view",
      "type": "function"
    },
    {
      "inputs": [],
      "name": "withdrawFeeFactorMax",
      "outputs": [
        {
          "internalType": "uint256",
          "name": "",
          "type": "uint256"
        }
      ],
      "stateMutability": "view",
      "type": "function"
    }
  ],
  "bytecode": "0x6080604052436009556000600a556032600b556000600c556101c2600d55612710600e556103b6600f553480156200003657600080fd5b50600062000043620000a1565b600080546001600160a01b0319166001600160a01b0383169081178255604051929350917f8be0079c531659141344cd1fd0a4f28419497f9722a3daafe3b4186f6b6457e0908290a350600180556002805460ff19169055620000a5565b3390565b61376a80620000b56000396000f3fe608060405234801561001057600080fd5b506004361061030b5760003560e01c80637b0a47ee1161019d578063b77050e7116100e9578063e7198474116100a2578063f2fde38b1161007c578063f2fde38b146109aa578063f3fef3a3146109d0578063ffbd3b1f146109fc578063ffbe9f1e1461044f5761030b565b8063e719847414610992578063e7a036791461099a578063f1068454146109a25761030b565b8063b77050e71461091a578063c11c2e9214610937578063c8e3d18b1461093f578063cfad57a21461095c578063d389800f14610982578063d7cb416f1461098a5761030b565b80638cf57cb9116101565780638fefda06116101305780638fefda06146108ed57806396e9aff8146108f55780639872317f14610349578063b74cd242146109125761030b565b80638cf57cb9146103ba5780638d9ab2be146108a15780638da5cb5b146108e55761030b565b80637b0a47ee1461085c5780637ff36fbe146108645780638456cb591461086c57806385f02dd614610874578063866b20181461087c5780638811dad0146108845761030b565b806346008a071161025c57806367057b6c11610215578063715018a6116101ef578063715018a6146104675780637344a4e21461046f578063783478ad14610854578063784def8c146103ba5761030b565b806367057b6c1461044f57806368f5416214610457578063693a090b1461045f5761030b565b806346008a07146103d25780634700d305146103da57806347e7ef24146103e2578063492816831461040e5780635c975abb1461042b57806365a5e30b146104475761030b565b80633220d732116102c957806340c34b58116102a357806340c34b58146103b257806341275358146103ba57806342da4eb3146103c257806344a3955e146103ca5761030b565b80633220d732146103985780633505b09f146103a05780633f4ba83a146103aa5761030b565b80627a2ae31461031057806302d454571461034957806304c9d490146103515780630fa4e01e1461036b578063178a8d0714610373578063260ab48c1461037b575b600080fd5b61032d6004803603602081101561032657600080fd5b5035610a04565b604080516001600160a01b039092168252519081900360200190f35b61032d610a2b565b610359610a43565b60408051918252519081900360200190f35b610359610acb565b610359610ad1565b61032d6004803603602081101561039157600080fd5b5035610ad7565b61032d610ae4565b6103a8610af3565b005b6103a8610b45565b61032d610b95565b61032d610ba4565b610359610bbc565b610359610c4f565b61032d610c55565b6103a8610c64565b610359600480360360408110156103f857600080fd5b506001600160a01b038135169060200135610cbc565b61032d6004803603602081101561042457600080fd5b5035610e29565b610433610e36565b604080519115158252519081900360200190f35b6103a8610e3f565b610359610e9a565b610359610ea0565b61032d610ea6565b6103a8610eb5565b6103a860048036036101a081101561048657600080fd5b6001600160a01b03823581169260208101358216926040820135831692606083013592608081013582169260a08201359092169181019060e0810160c0820135600160201b8111156104d757600080fd5b8201836020820111156104e957600080fd5b803590602001918460208302840111600160201b8311171561050a57600080fd5b9190808060200260200160405190810160405280939291908181526020018383602002808284376000920191909152509295949360208101935035915050600160201b81111561055957600080fd5b82018360208201111561056b57600080fd5b803590602001918460208302840111600160201b8311171561058c57600080fd5b9190808060200260200160405190810160405280939291908181526020018383602002808284376000920191909152509295949360208101935035915050600160201b8111156105db57600080fd5b8201836020820111156105ed57600080fd5b803590602001918460208302840111600160201b8311171561060e57600080fd5b9190808060200260200160405190810160405280939291908181526020018383602002808284376000920191909152509295949360208101935035915050600160201b81111561065d57600080fd5b82018360208201111561066f57600080fd5b803590602001918460208302840111600160201b8311171561069057600080fd5b9190808060200260200160405190810160405280939291908181526020018383602002808284376000920191909152509295949360208101935035915050600160201b8111156106df57600080fd5b8201836020820111156106f157600080fd5b803590602001918460208302840111600160201b8311171561071257600080fd5b9190808060200260200160405190810160405280939291908181526020018383602002808284376000920191909152509295949360208101935035915050600160201b81111561076157600080fd5b82018360208201111561077357600080fd5b803590602001918460208302840111600160201b8311171561079457600080fd5b9190808060200260200160405190810160405280939291908181526020018383602002808284376000920191909152509295949360208101935035915050600160201b8111156107e357600080fd5b8201836020820111156107f557600080fd5b803590602001918460208302840111600160201b8311171561081657600080fd5b919080806020026020016040519081016040528093929190818152602001838360200280828437600092019190915250929550610f57945050505050565b61032d611262565b610359611268565b61032d61126e565b6103a861127d565b6103596112cd565b6103596112d3565b61032d6004803603602081101561089a57600080fd5b50356112d9565b6103a8600480360360c08110156108b757600080fd5b5080359060208101359060408101359060608101359060808101359060a001356001600160a01b03166112e6565b61032d611523565b610359611532565b61032d6004803603602081101561090b57600080fd5b5035611538565b610359611545565b61032d6004803603602081101561093057600080fd5b503561154b565b6103a8611558565b61032d6004803603602081101561095557600080fd5b50356117fe565b6103a86004803603602081101561097257600080fd5b50356001600160a01b031661180b565b6103a8611875565b61032d611d08565b61032d611d17565b61032d611d26565b610359611d3a565b6103a8600480360360208110156109c057600080fd5b50356001600160a01b0316611d40565b610359600480360360408110156109e657600080fd5b506001600160a01b038135169060200135611e38565b610359612137565b60168181548110610a1157fe5b6000918252602090912001546001600160a01b0316905081565b73e9e7cea3dedca5984780bafc599bd69add087d5681565b601754601854604080516393f1a40b60e01b81526004810192909252306024830152805160009384936001600160a01b03909116926393f1a40b92604480840193829003018186803b158015610a9857600080fd5b505afa158015610aac573d6000803e3d6000fd5b505050506040513d6040811015610ac257600080fd5b50519150505b90565b60095481565b600d5481565b60108181548110610a1157fe5b6007546001600160a01b031681565b6008546001600160a01b03163314610b3b576040805162461bcd60e51b8152602060048083019190915260248201526310b3b7bb60e11b604482015290519081900360640190fd5b610b4361213d565b565b6008546001600160a01b03163314610b8d576040805162461bcd60e51b8152602060048083019190915260248201526310b3b7bb60e11b604482015290519081900360640190fd5b610b3b6122a4565b6017546001600160a01b031681565b737bd7fce639342c9f8cf648f1c265e971e275c4be81565b6000610c4a610bc9610a43565b600254604080516370a0823160e01b815230600482015290516101009092046001600160a01b0316916370a0823191602480820192602092909190829003018186803b158015610c1857600080fd5b505afa158015610c2c573d6000803e3d6000fd5b505050506040513d6020811015610c4257600080fd5b505190612342565b905090565b600a5481565b6008546001600160a01b031681565b6008546001600160a01b03163314610cac576040805162461bcd60e51b8152602060048083019190915260248201526310b3b7bb60e11b604482015290519081900360640190fd5b610cb46123a5565b610b43612426565b6000610cc6612490565b6000546001600160a01b03908116911614610d16576040805162461bcd60e51b815260206004820181905260248201526000805160206136b5833981519152604482015290519081900360640190fd5b60026001541415610d5c576040805162461bcd60e51b815260206004820152601f602482015260008051602061364e833981519152604482015290519081900360640190fd5b600260018190555460ff1615610dac576040805162461bcd60e51b815260206004820152601060248201526f14185d5cd8589b194e881c185d5cd95960821b604482015290519081900360640190fd5b6000610db6610bbc565b600254909150610dd69061010090046001600160a01b0316333086612494565b6000610de06124ee565b600a5490915015610e0d57610e0a82610e04600a54846125c390919063ffffffff16565b9061261c565b90505b600a54610e1a9082612342565b600a5560018055949350505050565b60118181548110610a1157fe5b60025460ff1690565b6008546001600160a01b03163314610e87576040805162461bcd60e51b8152602060048083019190915260248201526310b3b7bb60e11b604482015290519081900360640190fd5b610e8f6122a4565b610e976124ee565b50565b61271081565b600e5481565b6006546001600160a01b031681565b610ebd612490565b6000546001600160a01b03908116911614610f0d576040805162461bcd60e51b815260206004820181905260248201526000805160206136b5833981519152604482015290519081900360640190fd5b600080546040516001600160a01b03909116907f8be0079c531659141344cd1fd0a4f28419497f9722a3daafe3b4186f6b6457e0908390a3600080546001600160a01b0319169055565b610f5f612490565b6000546001600160a01b03908116911614610faf576040805162461bcd60e51b815260206004820181905260248201526000805160206136b5833981519152604482015290519081900360640190fd5b33600860006101000a8154816001600160a01b0302191690836001600160a01b031602179055508c600760006101000a8154816001600160a01b0302191690836001600160a01b031602179055508b601760006101000a8154816001600160a01b0302191690836001600160a01b031602179055508a600660006101000a8154816001600160a01b0302191690836001600160a01b0316021790555088600260016101000a8154816001600160a01b0302191690836001600160a01b03160217905550600260019054906101000a90046001600160a01b03166001600160a01b0316630dfe16816040518163ffffffff1660e01b815260040160206040518083038186803b1580156110c057600080fd5b505afa1580156110d4573d6000803e3d6000fd5b505050506040513d60208110156110ea57600080fd5b5051600380546001600160a01b0319166001600160a01b039283161790556002546040805163d21220a760e01b815290516101009092049092169163d21220a7916004808301926020929190829003018186803b15801561114a57600080fd5b505afa15801561115e573d6000803e3d6000fd5b505050506040513d602081101561117457600080fd5b5051600480546001600160a01b03199081166001600160a01b039384161790915560188c905560058054909116918a1691909117905586516111bd9060109060208a01906135d2565b5085516111d19060119060208901906135d2565b5084516111e59060129060208801906135d2565b5083516111f99060139060208701906135d2565b50825161120d9060149060208601906135d2565b5081516112219060159060208501906135d2565b5080516112359060169060208401906135d2565b5060075461124b906001600160a01b0316611d40565b61125361213d565b50505050505050505050505050565b61dead81565b600c5481565b6003546001600160a01b031681565b6008546001600160a01b031633146112c5576040805162461bcd60e51b8152602060048083019190915260248201526310b3b7bb60e11b604482015290519081900360640190fd5b610b436123a5565b600b5481565b6126ac81565b60128181548110610a1157fe5b6008546001600160a01b0316331461132e576040805162461bcd60e51b8152602060048083019190915260248201526310b3b7bb60e11b604482015290519081900360640190fd5b6103e86113458561133f8989612342565b90612342565b1115611389576040805162461bcd60e51b815260206004820152600e60248201526d4d617820666565206f662031302560901b604482015290519081900360640190fd5b6126ac8310156113e0576040805162461bcd60e51b815260206004820152601a60248201527f5f7769746864726177466565466163746f7220746f6f206c6f77000000000000604482015290519081900360640190fd5b612710831115611437576040805162461bcd60e51b815260206004820152601b60248201527f5f7769746864726177466565466163746f7220746f6f20686967680000000000604482015290519081900360640190fd5b6103e382111561148e576040805162461bcd60e51b815260206004820152601860248201527f5f736c697070616765466163746f7220746f6f20686967680000000000000000604482015290519081900360640190fd5b600b869055600c859055600d849055600e839055600f829055600680546001600160a01b0383166001600160a01b031990911681179091556040805188815260208101889052808201879052606081018690526080810185905260a0810192909252517f750807eeb548451f82ba7f92d0202705fb1886ac44b94fc763520e47bbe2ff4b9181900360c00190a1505050505050565b6000546001600160a01b031690565b6103e881565b60148181548110610a1157fe5b6103e381565b60158181548110610a1157fe5b6002600154141561159e576040805162461bcd60e51b815260206004820152601f602482015260008051602061364e833981519152604482015290519081900360640190fd5b600260018190555460ff16156115ee576040805162461bcd60e51b815260206004820152601060248201526f14185d5cd8589b194e881c185d5cd95960821b604482015290519081900360640190fd5b600354604080516370a0823160e01b815230600482015290516000926001600160a01b0316916370a08231916024808301926020929190829003018186803b15801561163957600080fd5b505afa15801561164d573d6000803e3d6000fd5b505050506040513d602081101561166357600080fd5b50519050801580159061168757506005546003546001600160a01b03908116911614155b156116f1576116f18160158054806020026020016040519081016040528092919081815260200182805480156116e657602002820191906000526020600020905b81546001600160a01b031681526001909101906020018083116116c8575b50505050503061265e565b60048054604080516370a0823160e01b81523093810193909352516000926001600160a01b03909216916370a08231916024808301926020929190829003018186803b15801561174057600080fd5b505afa158015611754573d6000803e3d6000fd5b505050506040513d602081101561176a57600080fd5b50519050801580159061178e57506005546004546001600160a01b03908116911614155b156117f6576117f68160168054806020026020016040519081016040528092919081815260200182805480156116e6576020028201919060005260206000209081546001600160a01b031681526001909101906020018083116116c85750505050503061265e565b505060018055565b60138181548110610a1157fe5b6008546001600160a01b03163314611853576040805162461bcd60e51b8152602060048083019190915260248201526310b3b7bb60e11b604482015290519081900360640190fd5b600880546001600160a01b0319166001600160a01b0392909216919091179055565b600260015414156118bb576040805162461bcd60e51b815260206004820152601f602482015260008051602061364e833981519152604482015290519081900360640190fd5b600260018190555460ff161561190b576040805162461bcd60e51b815260206004820152601060248201526f14185d5cd8589b194e881c185d5cd95960821b604482015290519081900360640190fd5b6008546001600160a01b03163314611953576040805162461bcd60e51b8152602060048083019190915260248201526310b3b7bb60e11b604482015290519081900360640190fd5b61195b612998565b600554604080516370a0823160e01b815230600482015290516000926001600160a01b0316916370a08231916024808301926020929190829003018186803b1580156119a657600080fd5b505afa1580156119ba573d6000803e3d6000fd5b505050506040513d60208110156119d057600080fd5b505190508015611d01576119e3816129ee565b90506119ee81612aa3565b90506119f981612ce9565b6003546005549192506001600160a01b03918216911614611a8157611a81611a2282600261261c565b60138054806020026020016040519081016040528092919081815260200182805480156116e6576020028201919060005260206000209081546001600160a01b031681526001909101906020018083116116c85750505050503061265e565b6004546005546001600160a01b03908116911614611b0657611b06611aa782600261261c565b60148054806020026020016040519081016040528092919081815260200182805480156116e6576020028201919060005260206000209081546001600160a01b031681526001909101906020018083116116c85750505050503061265e565b600354604080516370a0823160e01b815230600482015290516000926001600160a01b0316916370a08231916024808301926020929190829003018186803b158015611b5157600080fd5b505afa158015611b65573d6000803e3d6000fd5b505050506040513d6020811015611b7b57600080fd5b505160048054604080516370a0823160e01b81523093810193909352519293506000926001600160a01b03909116916370a08231916024808301926020929190829003018186803b158015611bcf57600080fd5b505afa158015611be3573d6000803e3d6000fd5b505050506040513d6020811015611bf957600080fd5b505190508115801590611c0c5750600081115b15611cf1576006546003546004546001600160a01b039283169263e8e337009281169116858560008030611c4242610258612342565b6040518963ffffffff1660e01b815260040180896001600160a01b03168152602001886001600160a01b03168152602001878152602001868152602001858152602001848152602001836001600160a01b0316815260200182815260200198505050505050505050606060405180830381600087803b158015611cc457600080fd5b505af1158015611cd8573d6000803e3d6000fd5b505050506040513d6060811015611cee57600080fd5b50505b43600955611cfd6124ee565b5050505b5060018055565b6004546001600160a01b031681565b6005546001600160a01b031681565b60025461010090046001600160a01b031681565b60185481565b611d48612490565b6000546001600160a01b03908116911614611d98576040805162461bcd60e51b815260206004820181905260248201526000805160206136b5833981519152604482015290519081900360640190fd5b6001600160a01b038116611ddd5760405162461bcd60e51b815260040180806020018281038252602681526020018061366e6026913960400191505060405180910390fd5b600080546040516001600160a01b03808516939216917f8be0079c531659141344cd1fd0a4f28419497f9722a3daafe3b4186f6b6457e091a3600080546001600160a01b0319166001600160a01b0392909216919091179055565b6000611e42612490565b6000546001600160a01b03908116911614611e92576040805162461bcd60e51b815260206004820181905260248201526000805160206136b5833981519152604482015290519081900360640190fd5b60026001541415611ed8576040805162461bcd60e51b815260206004820152601f602482015260008051602061364e833981519152604482015290519081900360640190fd5b600260015581611f1f576040805162461bcd60e51b815260206004820152600d60248201526c05f77616e74416d74206973203609c1b604482015290519081900360640190fd5b600254604080516370a0823160e01b8152306004820152905160009261010090046001600160a01b0316916370a08231916024808301926020929190829003018186803b158015611f6f57600080fd5b505afa158015611f83573d6000803e3d6000fd5b505050506040513d6020811015611f9957600080fd5b505190508083111561203557611fb7611fb28483612d7a565b612dbc565b600254604080516370a0823160e01b815230600482015290516101009092046001600160a01b0316916370a0823191602480820192602092909190829003018186803b15801561200657600080fd5b505afa15801561201a573d6000803e3d6000fd5b505050506040513d602081101561203057600080fd5b505190505b80831115612041578092505b612049610bbc565b83111561205b57612058610bbc565b92505b6000612076612068610bbc565b600a54610e049087906125c3565b9050600a548111156120875750600a545b600a546120949082612d7a565b600a8190555060006120c3612710610e046120bc600e54612710612d7a90919063ffffffff16565b88906125c3565b905080156120fb576002546120fb9061010090046001600160a01b0316737bd7fce639342c9f8cf648f1c265e971e275c4be83612e2e565b6121058582612d7a565b60075460025491965061212a9161010090046001600160a01b03908116911687612e2e565b5060018055949350505050565b600f5481565b601754600254612160916001600160a01b03610100909204821691166000612e85565b601754600254612184916001600160a01b0361010090920482169116600019612f98565b6006546005546121a2916001600160a01b0391821691166000612e85565b6006546005546121c1916001600160a01b039182169116600019612f98565b6006546003546121df916001600160a01b0391821691166000612e85565b6006546003546121fe916001600160a01b039182169116600019612f98565b60065460045461221c916001600160a01b0391821691166000612e85565b60065460045461223b916001600160a01b039182169116600019612f98565b61226f73e9e7cea3dedca5984780bafc599bd69add087d56737bd7fce639342c9f8cf648f1c265e971e275c4be6000612e85565b610b4373e9e7cea3dedca5984780bafc599bd69add087d56737bd7fce639342c9f8cf648f1c265e971e275c4be600019612f98565b60025460ff166122f2576040805162461bcd60e51b815260206004820152601460248201527314185d5cd8589b194e881b9bdd081c185d5cd95960621b604482015290519081900360640190fd5b6002805460ff191690557f5db9ee0a495bf2e6ff9c91a7834c1ba4fdd244a5e8aa4e537bd38aeae4b073aa612325612490565b604080516001600160a01b039092168252519081900360200190a1565b60008282018381101561239c576040805162461bcd60e51b815260206004820152601b60248201527f536166654d6174683a206164646974696f6e206f766572666c6f770000000000604482015290519081900360640190fd5b90505b92915050565b60025460ff16156123f0576040805162461bcd60e51b815260206004820152601060248201526f14185d5cd8589b194e881c185d5cd95960821b604482015290519081900360640190fd5b6002805460ff191660011790557f62e78cea01bee320cd4e420270b5ea74000d11b0c9f74754ebdbfc544b05a258612325612490565b60175460185460408051632989754760e11b81526004810192909252516001600160a01b0390921691635312ea8e9160248082019260009290919082900301818387803b15801561247657600080fd5b505af115801561248a573d6000803e3d6000fd5b50505050565b3390565b604080516001600160a01b0380861660248301528416604482015260648082018490528251808303909101815260849091019091526020810180516001600160e01b03166323b872dd60e01b17905261248a90859061304d565b600080600260019054906101000a90046001600160a01b03166001600160a01b03166370a08231306040518263ffffffff1660e01b815260040180826001600160a01b0316815260200191505060206040518083038186803b15801561255357600080fd5b505afa158015612567573d6000803e3d6000fd5b505050506040513d602081101561257d57600080fd5b5051905080612590576000915050610ac8565b600061259a610a43565b90506125a5826130fe565b60006125af610a43565b90506125bb8183612d7a565b935050505090565b6000826125d25750600061239f565b828202828482816125df57fe5b041461239c5760405162461bcd60e51b81526004018080602001828103825260218152602001806136946021913960400191505060405180910390fd5b600061239c83836040518060400160405280601a81526020017f536166654d6174683a206469766973696f6e206279207a65726f000000000000815250613155565b6006546040805163d06ca61f60e01b815260048101868152602482019283528551604483015285516060946001600160a01b03169363d06ca61f9389938993909291606401906020808601910280838360005b838110156126c95781810151838201526020016126b1565b50505050905001935050505060006040518083038186803b1580156126ed57600080fd5b505afa158015612701573d6000803e3d6000fd5b505050506040513d6000823e601f3d908101601f19168201604052602081101561272a57600080fd5b8101908080516040519392919084600160201b82111561274957600080fd5b90830190602082018581111561275e57600080fd5b82518660208202830111600160201b8211171561277a57600080fd5b82525081516020918201928201910280838360005b838110156127a757818101518382015260200161278f565b5050505090500160405250505090506000816127ce60018451612d7a90919063ffffffff16565b815181106127d857fe5b60200260200101519050600660009054906101000a90046001600160a01b03166001600160a01b03166338ed1739866128226103e8610e04600f54876125c390919063ffffffff16565b878761283042610258612342565b6040518663ffffffff1660e01b81526004018086815260200185815260200180602001846001600160a01b03168152602001838152602001828103825285818151815260200191508051906020019060200280838360005b838110156128a0578181015183820152602001612888565b505050509050019650505050505050600060405180830381600087803b1580156128c957600080fd5b505af11580156128dd573d6000803e3d6000fd5b505050506040513d6000823e601f3d908101601f19168201604052602081101561290657600080fd5b8101908080516040519392919084600160201b82111561292557600080fd5b90830190602082018581111561293a57600080fd5b82518660208202830111600160201b8211171561295657600080fd5b82525081516020918201928201910280838360005b8381101561298357818101518382015260200161296b565b50505050905001604052505050505050505050565b60175460185460408051630441a3e760e41b8152600481019290925260006024830181905290516001600160a01b039093169263441a3e7092604480820193929182900301818387803b15801561247657600080fd5b600b5460009015612a9f576000612a16612710610e04600b54866125c390919063ffffffff16565b9050612a91816010805480602002602001604051908101604052809291908181526020018280548015612a7257602002820191906000526020600020905b81546001600160a01b03168152600190910190602001808311612a54575b5050505050737bd7fce639342c9f8cf648f1c265e971e275c4be6131f7565b612a9b8382612d7a565b9250505b5090565b600c5460009015612a9f576000612acb612710610e04600c54866125c390919063ffffffff16565b604080516370a0823160e01b8152306004820152905191925060009173e9e7cea3dedca5984780bafc599bd69add087d56916370a08231916024808301926020929190829003018186803b158015612b2257600080fd5b505afa158015612b36573d6000803e3d6000fd5b505050506040513d6020811015612b4c57600080fd5b50516011805460408051602083810282018101909252828152939450612bb4938693909290918301828280156116e6576020028201919060005260206000209081546001600160a01b031681526001909101906020018083116116c85750505050503061265e565b6000612c4d8273e9e7cea3dedca5984780bafc599bd69add087d566001600160a01b03166370a08231306040518263ffffffff1660e01b815260040180826001600160a01b0316815260200191505060206040518083038186803b158015612c1b57600080fd5b505afa158015612c2f573d6000803e3d6000fd5b505050506040513d6020811015612c4557600080fd5b505190612d7a565b9050737bd7fce639342c9f8cf648f1c265e971e275c4be6001600160a01b0316631e2720ff826040518263ffffffff1660e01b815260040180828152602001915050602060405180830381600087803b158015612ca957600080fd5b505af1158015612cbd573d6000803e3d6000fd5b505050506040513d6020811015612cd357600080fd5b50612ce090508584612d7a565b95945050505050565b600d5460009015612a9f576000612d11612710610e04600d54866125c390919063ffffffff16565b9050612a91816012805480602002602001604051908101604052809291908181526020018280548015612d6d57602002820191906000526020600020905b81546001600160a01b03168152600190910190602001808311612d4f575b505050505061dead61265e565b600061239c83836040518060400160405280601e81526020017f536166654d6174683a207375627472616374696f6e206f766572666c6f7700008152506133bb565b60175460185460408051630441a3e760e41b8152600481019290925260248201849052516001600160a01b039092169163441a3e709160448082019260009290919082900301818387803b158015612e1357600080fd5b505af1158015612e27573d6000803e3d6000fd5b5050505050565b604080516001600160a01b038416602482015260448082018490528251808303909101815260649091019091526020810180516001600160e01b031663a9059cbb60e01b179052612e8090849061304d565b505050565b801580612f0b575060408051636eb1769f60e11b81523060048201526001600160a01b03848116602483015291519185169163dd62ed3e91604480820192602092909190829003018186803b158015612edd57600080fd5b505afa158015612ef1573d6000803e3d6000fd5b505050506040513d6020811015612f0757600080fd5b5051155b612f465760405162461bcd60e51b81526004018080602001828103825260368152602001806136ff6036913960400191505060405180910390fd5b604080516001600160a01b038416602482015260448082018490528251808303909101815260649091019091526020810180516001600160e01b031663095ea7b360e01b179052612e8090849061304d565b6000612ffc82856001600160a01b031663dd62ed3e30876040518363ffffffff1660e01b815260040180836001600160a01b03168152602001826001600160a01b031681526020019250505060206040518083038186803b158015610c1857600080fd5b604080516001600160a01b038616602482015260448082018490528251808303909101815260649091019091526020810180516001600160e01b031663095ea7b360e01b17905290915061248a9085905b60606130a2826040518060400160405280602081526020017f5361666545524332303a206c6f772d6c6576656c2063616c6c206661696c6564815250856001600160a01b03166134159092919063ffffffff16565b805190915015612e80578080602001905160208110156130c157600080fd5b5051612e805760405162461bcd60e51b815260040180806020018281038252602a8152602001806136d5602a913960400191505060405180910390fd5b60175460185460408051631c57762b60e31b8152600481019290925260248201849052516001600160a01b039092169163e2bbb1589160448082019260009290919082900301818387803b158015612e1357600080fd5b600081836131e15760405162461bcd60e51b81526004018080602001828103825283818151815260200191508051906020019080838360005b838110156131a657818101518382015260200161318e565b50505050905090810190601f1680156131d35780820380516001836020036101000a031916815260200191505b509250505060405180910390fd5b5060008385816131ed57fe5b0495945050505050565b6006546040805163d06ca61f60e01b815260048101868152602482019283528551604483015285516060946001600160a01b03169363d06ca61f9389938993909291606401906020808601910280838360005b8381101561326257818101518382015260200161324a565b50505050905001935050505060006040518083038186803b15801561328657600080fd5b505afa15801561329a573d6000803e3d6000fd5b505050506040513d6000823e601f3d908101601f1916820160405260208110156132c357600080fd5b8101908080516040519392919084600160201b8211156132e257600080fd5b9083019060208201858111156132f757600080fd5b82518660208202830111600160201b8211171561331357600080fd5b82525081516020918201928201910280838360005b83811015613340578181015183820152602001613328565b50505050905001604052505050905060008161336760018451612d7a90919063ffffffff16565b8151811061337157fe5b60200260200101519050600660009054906101000a90046001600160a01b03166001600160a01b03166318cbafe5866128226103e8610e04600f54876125c390919063ffffffff16565b6000818484111561340d5760405162461bcd60e51b81526020600482018181528351602484015283519092839260449091019190850190808383600083156131a657818101518382015260200161318e565b505050900390565b6060613424848460008561342c565b949350505050565b606061343785613599565b613488576040805162461bcd60e51b815260206004820152601d60248201527f416464726573733a2063616c6c20746f206e6f6e2d636f6e7472616374000000604482015290519081900360640190fd5b60006060866001600160a01b031685876040518082805190602001908083835b602083106134c75780518252601f1990920191602091820191016134a8565b6001836020036101000a03801982511681845116808217855250505050505090500191505060006040518083038185875af1925050503d8060008114613529576040519150601f19603f3d011682016040523d82523d6000602084013e61352e565b606091505b509150915081156135425791506134249050565b8051156135525780518082602001fd5b60405162461bcd60e51b81526020600482018181528651602484015286518793919283926044019190850190808383600083156131a657818101518382015260200161318e565b6000813f7fc5d2460186f7233c927e7db2dcc703c0e500b653ca82273b7bfad8045d85a470818114801590613424575050151592915050565b828054828255906000526020600020908101928215613627579160200282015b8281111561362757825182546001600160a01b0319166001600160a01b039091161782556020909201916001909101906135f2565b50612a9f9291505b80821115612a9f5780546001600160a01b031916815560010161362f56fe5265656e7472616e637947756172643a207265656e7472616e742063616c6c004f776e61626c653a206e6577206f776e657220697320746865207a65726f2061646472657373536166654d6174683a206d756c7469706c69636174696f6e206f766572666c6f774f776e61626c653a2063616c6c6572206973206e6f7420746865206f776e65725361666545524332303a204552433230206f7065726174696f6e20646964206e6f7420737563636565645361666545524332303a20617070726f76652066726f6d206e6f6e2d7a65726f20746f206e6f6e2d7a65726f20616c6c6f77616e6365a26469706673582212205506f721813a66a3d1b662ad91fb37b521e46091657b9716616e981ac3fa37cb64736f6c634300060c0033",
  "linkReferences": {},
  "deployedLinkReferences": {}
}