{
  "_format": "hh-sol-artifact-1",
  "contractName": "VaultChef",
  "sourceName": "contracts/Vault/VaultChef.sol",
  "abi": [
    {
      "anonymous": false,
      "inputs": [
        {
          "indexed": true,
          "internalType": "address",
          "name": "strat",
          "type": "address"
        }
      ],
      "name": "AddPool",
      "type": "event"
    },
    {
      "anonymous": false,
      "inputs": [
        {
          "indexed": true,
          "internalType": "address",
          "name": "user",
          "type": "address"
        },
        {
          "indexed": true,
          "internalType": "uint256",
          "name": "pid",
          "type": "uint256"
        },
        {
          "indexed": false,
          "internalType": "uint256",
          "name": "amount",
          "type": "uint256"
        }
      ],
      "name": "Deposit",
      "type": "event"
    },
    {
      "anonymous": false,
      "inputs": [
        {
          "indexed": true,
          "internalType": "address",
          "name": "user",
          "type": "address"
        },
        {
          "indexed": true,
          "internalType": "uint256",
          "name": "pid",
          "type": "uint256"
        },
        {
          "indexed": false,
          "internalType": "uint256",
          "name": "amount",
          "type": "uint256"
        }
      ],
      "name": "EmergencyWithdraw",
      "type": "event"
    },
    {
      "anonymous": false,
      "inputs": [
        {
          "indexed": true,
          "internalType": "address",
          "name": "operator",
          "type": "address"
        },
        {
          "indexed": true,
          "internalType": "bool",
          "name": "status",
          "type": "bool"
        }
      ],
      "name": "OperatorUpdated",
      "type": "event"
    },
    {
      "anonymous": false,
      "inputs": [
        {
          "indexed": true,
          "internalType": "address",
          "name": "previousOwner",
          "type": "address"
        },
        {
          "indexed": true,
          "internalType": "address",
          "name": "newOwner",
          "type": "address"
        }
      ],
      "name": "OwnershipTransferred",
      "type": "event"
    },
    {
      "anonymous": false,
      "inputs": [
        {
          "indexed": true,
          "internalType": "address",
          "name": "user",
          "type": "address"
        },
        {
          "indexed": true,
          "internalType": "uint256",
          "name": "pid",
          "type": "uint256"
        },
        {
          "indexed": false,
          "internalType": "uint256",
          "name": "amount",
          "type": "uint256"
        }
      ],
      "name": "Withdraw",
      "type": "event"
    },
    {
      "inputs": [
        {
          "internalType": "address",
          "name": "_strat",
          "type": "address"
        }
      ],
      "name": "addPool",
      "outputs": [],
      "stateMutability": "nonpayable",
      "type": "function"
    },
    {
      "inputs": [
        {
          "internalType": "uint256",
          "name": "_pid",
          "type": "uint256"
        },
        {
          "internalType": "uint256",
          "name": "_wantAmt",
          "type": "uint256"
        },
        {
          "internalType": "address",
          "name": "_to",
          "type": "address"
        }
      ],
      "name": "deposit",
      "outputs": [],
      "stateMutability": "nonpayable",
      "type": "function"
    },
    {
      "inputs": [
        {
          "internalType": "uint256",
          "name": "_pid",
          "type": "uint256"
        },
        {
          "internalType": "uint256",
          "name": "_wantAmt",
          "type": "uint256"
        }
      ],
      "name": "deposit",
      "outputs": [],
      "stateMutability": "nonpayable",
      "type": "function"
    },
    {
      "inputs": [
        {
          "internalType": "address",
          "name": "",
          "type": "address"
        }
      ],
      "name": "operators",
      "outputs": [
        {
          "internalType": "bool",
          "name": "",
          "type": "bool"
        }
      ],
      "stateMutability": "view",
      "type": "function"
    },
    {
      "inputs": [],
      "name": "owner",
      "outputs": [
        {
          "internalType": "address",
          "name": "",
          "type": "address"
        }
      ],
      "stateMutability": "view",
      "type": "function"
    },
    {
      "inputs": [
        {
          "internalType": "uint256",
          "name": "",
          "type": "uint256"
        }
      ],
      "name": "poolInfo",
      "outputs": [
        {
          "internalType": "contract IERC20",
          "name": "want",
          "type": "address"
        },
        {
          "internalType": "address",
          "name": "strat",
          "type": "address"
        }
      ],
      "stateMutability": "view",
      "type": "function"
    },
    {
      "inputs": [],
      "name": "poolLength",
      "outputs": [
        {
          "internalType": "uint256",
          "name": "",
          "type": "uint256"
        }
      ],
      "stateMutability": "view",
      "type": "function"
    },
    {
      "inputs": [],
      "name": "renounceOwnership",
      "outputs": [],
      "stateMutability": "nonpayable",
      "type": "function"
    },
    {
      "inputs": [],
      "name": "resetAllowances",
      "outputs": [],
      "stateMutability": "nonpayable",
      "type": "function"
    },
    {
      "inputs": [
        {
          "internalType": "uint256",
          "name": "_pid",
          "type": "uint256"
        }
      ],
      "name": "resetSingleAllowance",
      "outputs": [],
      "stateMutability": "nonpayable",
      "type": "function"
    },
    {
      "inputs": [
        {
          "internalType": "uint256",
          "name": "_pid",
          "type": "uint256"
        },
        {
          "internalType": "address",
          "name": "_user",
          "type": "address"
        }
      ],
      "name": "stakedWantTokens",
      "outputs": [
        {
          "internalType": "uint256",
          "name": "",
          "type": "uint256"
        }
      ],
      "stateMutability": "view",
      "type": "function"
    },
    {
      "inputs": [
        {
          "internalType": "address",
          "name": "newOwner",
          "type": "address"
        }
      ],
      "name": "transferOwnership",
      "outputs": [],
      "stateMutability": "nonpayable",
      "type": "function"
    },
    {
      "inputs": [
        {
          "internalType": "address",
          "name": "_operator",
          "type": "address"
        },
        {
          "internalType": "bool",
          "name": "_status",
          "type": "bool"
        }
      ],
      "name": "updateOperator",
      "outputs": [],
      "stateMutability": "nonpayable",
      "type": "function"
    },
    {
      "inputs": [
        {
          "internalType": "uint256",
          "name": "",
          "type": "uint256"
        },
        {
          "internalType": "address",
          "name": "",
          "type": "address"
        }
      ],
      "name": "userInfo",
      "outputs": [
        {
          "internalType": "uint256",
          "name": "shares",
          "type": "uint256"
        }
      ],
      "stateMutability": "view",
      "type": "function"
    },
    {
      "inputs": [
        {
          "internalType": "uint256",
          "name": "_pid",
          "type": "uint256"
        },
        {
          "internalType": "uint256",
          "name": "_wantAmt",
          "type": "uint256"
        },
        {
          "internalType": "address",
          "name": "_to",
          "type": "address"
        }
      ],
      "name": "withdraw",
      "outputs": [],
      "stateMutability": "nonpayable",
      "type": "function"
    },
    {
      "inputs": [
        {
          "internalType": "uint256",
          "name": "_pid",
          "type": "uint256"
        },
        {
          "internalType": "uint256",
          "name": "_wantAmt",
          "type": "uint256"
        }
      ],
      "name": "withdraw",
      "outputs": [],
      "stateMutability": "nonpayable",
      "type": "function"
    },
    {
      "inputs": [
        {
          "internalType": "uint256",
          "name": "_pid",
          "type": "uint256"
        }
      ],
      "name": "withdrawAll",
      "outputs": [],
      "stateMutability": "nonpayable",
      "type": "function"
    }
  ],
  "bytecode": "0x608060405234801561001057600080fd5b50600061001b61006e565b600080546001600160a01b0319166001600160a01b0383169081178255604051929350917f8be0079c531659141344cd1fd0a4f28419497f9722a3daafe3b4186f6b6457e0908290a35060018055610072565b3390565b611b79806100816000396000f3fe608060405234801561001057600080fd5b506004361061010b5760003560e01c8063715018a6116100a257806393f1a40b1161007157806393f1a40b146102e4578063958e2d3114610310578063d914cd4b1461032d578063e2bbb15814610353578063f2fde38b146103765761010b565b8063715018a61461025a5780637b84daec146102625780638da5cb5b1461028e5780638dbdbe6d146102b25761010b565b806323e1ad7d116100de57806323e1ad7d146101e45780633505b09f14610201578063441a3e70146102095780636d44a3b21461022c5761010b565b8063081e3eda146101105780630ad58d2f1461012a57806313e7c9d81461015e5780631526fe2714610198575b600080fd5b61011861039c565b60408051918252519081900360200190f35b61015c6004803603606081101561014057600080fd5b50803590602081013590604001356001600160a01b03166103a2565b005b6101846004803603602081101561017457600080fd5b50356001600160a01b0316610452565b604080519115158252519081900360200190f35b6101b5600480360360208110156101ae57600080fd5b5035610467565b60405180836001600160a01b03168152602001826001600160a01b031681526020019250505060405180910390f35b61015c600480360360208110156101fa57600080fd5b503561049d565b61015c61055b565b61015c6004803603604081101561021f57600080fd5b508035906020013561062e565b61015c6004803603604081101561024257600080fd5b506001600160a01b038135169060200135151561068c565b61015c610738565b6101186004803603604081101561027857600080fd5b50803590602001356001600160a01b03166107da565b610296610952565b604080516001600160a01b039092168252519081900360200190f35b61015c600480360360608110156102c857600080fd5b50803590602081013590604001356001600160a01b0316610961565b610118600480360360408110156102fa57600080fd5b50803590602001356001600160a01b0316610a08565b61015c6004803603602081101561032657600080fd5b5035610a25565b61015c6004803603602081101561034357600080fd5b50356001600160a01b0316610a32565b61015c6004803603604081101561036957600080fd5b5080359060200135610c6c565b61015c6004803603602081101561038c57600080fd5b50356001600160a01b0316610cc2565b60035490565b600260015414156103e8576040805162461bcd60e51b815260206004820152601f6024820152600080516020611a39833981519152604482015290519081900360640190fd5b60026001819055336000908152602091909152604090205460ff1661043e5760405162461bcd60e51b8152600401808060200182810382526024815260200180611b206024913960400191505060405180910390fd5b610449838383610dba565b50506001805550565b60026020526000908152604090205460ff1681565b6003818154811061047457fe5b6000918252602090912060029091020180546001909101546001600160a01b0391821692501682565b6104a561116e565b6000546001600160a01b039081169116146104f5576040805162461bcd60e51b81526020600482018190526024820152600080516020611aa0833981519152604482015290519081900360640190fd5b60006003828154811061050457fe5b6000918252602082206001600290920201908101548154919350610537926001600160a01b039283169290911690611172565b60018101548154610557916001600160a01b03918216911660001961128a565b5050565b61056361116e565b6000546001600160a01b039081169116146105b3576040805162461bcd60e51b81526020600482018190526024820152600080516020611aa0833981519152604482015290519081900360640190fd5b60005b60035481101561062b576000600382815481106105cf57fe5b6000918252602082206001600290920201908101548154919350610602926001600160a01b039283169290911690611172565b60018101548154610622916001600160a01b03918216911660001961128a565b506001016105b6565b50565b60026001541415610674576040805162461bcd60e51b815260206004820152601f6024820152600080516020611a39833981519152604482015290519081900360640190fd5b6002600155610684828233610dba565b505060018055565b61069461116e565b6000546001600160a01b039081169116146106e4576040805162461bcd60e51b81526020600482018190526024820152600080516020611aa0833981519152604482015290519081900360640190fd5b6001600160a01b038216600081815260026020526040808220805460ff191685151590811790915590519092917f966c160e1c4dbc7df8d69af4ace01e9297c3cf016397b7914971f2fbfa32672d91a35050565b61074061116e565b6000546001600160a01b03908116911614610790576040805162461bcd60e51b81526020600482018190526024820152600080516020611aa0833981519152604482015290519081900360640190fd5b600080546040516001600160a01b03909116907f8be0079c531659141344cd1fd0a4f28419497f9722a3daafe3b4186f6b6457e0908390a3600080546001600160a01b0319169055565b600080600384815481106107ea57fe5b60009182526020808320878452600480835260408086206001600160a01b03808b16885290855281872060016002909702909401958601548251632251caaf60e11b815292519698509396959316936344a3955e93828401939192909190829003018186803b15801561085c57600080fd5b505afa158015610870573d6000803e3d6000fd5b505050506040513d602081101561088657600080fd5b5051600380549192506000918890811061089c57fe5b600091825260209182902060016002909202010154604080516342da4eb360e01b815290516001600160a01b03909216926342da4eb392600480840193829003018186803b1580156108ed57600080fd5b505afa158015610901573d6000803e3d6000fd5b505050506040513d602081101561091757600080fd5b505190508161092d57600094505050505061094c565b825461094590839061093f908461137b565b906113db565b9450505050505b92915050565b6000546001600160a01b031690565b600260015414156109a7576040805162461bcd60e51b815260206004820152601f6024820152600080516020611a39833981519152604482015290519081900360640190fd5b60026001819055336000908152602091909152604090205460ff166109fd5760405162461bcd60e51b8152600401808060200182810382526024815260200180611b206024913960400191505060405180910390fd5b61044983838361141d565b600460209081526000928352604080842090915290825290205481565b61062b8160001933610dba565b610a3a61116e565b6000546001600160a01b03908116911614610a8a576040805162461bcd60e51b81526020600482018190526024820152600080516020611aa0833981519152604482015290519081900360640190fd5b60026001541415610ad0576040805162461bcd60e51b815260206004820152601f6024820152600080516020611a39833981519152604482015290519081900360640190fd5b60026001556001600160a01b03811660009081526005602052604090205460ff1615610b37576040805162461bcd60e51b81526020600482015260116024820152704578697374696e6720737472617465677960781b604482015290519081900360640190fd5b60036040518060400160405280836001600160a01b031663e7a036796040518163ffffffff1660e01b815260040160206040518083038186803b158015610b7d57600080fd5b505afa158015610b91573d6000803e3d6000fd5b505050506040513d6020811015610ba757600080fd5b50516001600160a01b03908116825284811660209283018190528454600181810187556000968752848720865160029093020180549285166001600160a01b03199384161781559585015195810180549690941695909116949094179091558352600590526040909120805460ff191682179055600354610c3191610c2c919061158a565b61049d565b6040516001600160a01b038216907f8c82d670bc9247c2cfb6964089bc9cff0255f9caade6fbc74a13368083e5546690600090a25060018055565b60026001541415610cb2576040805162461bcd60e51b815260206004820152601f6024820152600080516020611a39833981519152604482015290519081900360640190fd5b600260015561068482823361141d565b610cca61116e565b6000546001600160a01b03908116911614610d1a576040805162461bcd60e51b81526020600482018190526024820152600080516020611aa0833981519152604482015290519081900360640190fd5b6001600160a01b038116610d5f5760405162461bcd60e51b8152600401808060200182810382526026815260200180611a596026913960400191505060405180910390fd5b600080546040516001600160a01b03808516939216917f8be0079c531659141344cd1fd0a4f28419497f9722a3daafe3b4186f6b6457e091a3600080546001600160a01b0319166001600160a01b0392909216919091179055565b600060038481548110610dc957fe5b600091825260208083208784526004825260408085203386529092529083206003805460029094029092019450929187908110610e0257fe5b600091825260209182902060016002909202010154604080516342da4eb360e01b815290516001600160a01b03909216926342da4eb392600480840193829003018186803b158015610e5357600080fd5b505afa158015610e67573d6000803e3d6000fd5b505050506040513d6020811015610e7d57600080fd5b50516003805491925060009188908110610e9357fe5b60009182526020918290206001600290920201015460408051632251caaf60e11b815290516001600160a01b03909216926344a3955e92600480840193829003018186803b158015610ee457600080fd5b505afa158015610ef8573d6000803e3d6000fd5b505050506040513d6020811015610f0e57600080fd5b50518354909150610f59576040805162461bcd60e51b815260206004820152601060248201526f0757365722e73686172657320697320360841b604482015290519081900360640190fd5b60008111610fa1576040805162461bcd60e51b815260206004820152601060248201526f0736861726573546f74616c20697320360841b604482015290519081900360640190fd5b8254600090610fb690839061093f908661137b565b905080871115610fc4578096505b861561112d57600060038981548110610fd957fe5b60009182526020808320600160029093020191909101546040805163f3fef3a360e01b8152336004820152602481018d905290516001600160a01b039092169363f3fef3a39360448084019491939192918390030190829087803b15801561104057600080fd5b505af1158015611054573d6000803e3d6000fd5b505050506040513d602081101561106a57600080fd5b505185549091508111156110815760008555611090565b845461108d908261158a565b85555b8554604080516370a0823160e01b815230600482015290516000926001600160a01b0316916370a08231916024808301926020929190829003018186803b1580156110da57600080fd5b505afa1580156110ee573d6000803e3d6000fd5b505050506040513d602081101561110457600080fd5b5051905088811015611114578098505b865461112a906001600160a01b0316898b6115cc565b50505b604080518881529051899133917ff279e6a1f5e320cca91135676d9cb6e44ca8a08c0b88342bcdb1144f6511b5689181900360200190a35050505050505050565b3390565b8015806111f8575060408051636eb1769f60e11b81523060048201526001600160a01b03848116602483015291519185169163dd62ed3e91604480820192602092909190829003018186803b1580156111ca57600080fd5b505afa1580156111de573d6000803e3d6000fd5b505050506040513d60208110156111f457600080fd5b5051155b6112335760405162461bcd60e51b8152600401808060200182810382526036815260200180611aea6036913960400191505060405180910390fd5b604080516001600160a01b038416602482015260448082018490528251808303909101815260649091019091526020810180516001600160e01b031663095ea7b360e01b17905261128590849061161a565b505050565b600061132082856001600160a01b031663dd62ed3e30876040518363ffffffff1660e01b815260040180836001600160a01b03168152602001826001600160a01b031681526020019250505060206040518083038186803b1580156112ee57600080fd5b505afa158015611302573d6000803e3d6000fd5b505050506040513d602081101561131857600080fd5b5051906116cb565b604080516001600160a01b038616602482015260448082018490528251808303909101815260649091019091526020810180516001600160e01b031663095ea7b360e01b17905290915061137590859061161a565b50505050565b60008261138a5750600061094c565b8282028284828161139757fe5b04146113d45760405162461bcd60e51b8152600401808060200182810382526021815260200180611a7f6021913960400191505060405180910390fd5b9392505050565b60006113d483836040518060400160405280601a81526020017f536166654d6174683a206469766973696f6e206279207a65726f000000000000815250611725565b60006003848154811061142c57fe5b600091825260208083208784526004825260408085206001600160a01b0388168652909252922060029091029091019150831561154357815461147a906001600160a01b03163330876117c7565b60006003868154811061148957fe5b906000526020600020906002020160010160009054906101000a90046001600160a01b03166001600160a01b03166347e7ef2485876040518363ffffffff1660e01b815260040180836001600160a01b0316815260200182815260200192505050602060405180830381600087803b15801561150457600080fd5b505af1158015611518573d6000803e3d6000fd5b505050506040513d602081101561152e57600080fd5b5051825490915061153f90826116cb565b8255505b60408051858152905186916001600160a01b038616917f90890809c654f11d6e72a28fa60149770a0d11ec6c92319d6ceb2bb0a4ea1a159181900360200190a35050505050565b60006113d483836040518060400160405280601e81526020017f536166654d6174683a207375627472616374696f6e206f766572666c6f770000815250611821565b604080516001600160a01b038416602482015260448082018490528251808303909101815260649091019091526020810180516001600160e01b031663a9059cbb60e01b1790526112859084905b606061166f826040518060400160405280602081526020017f5361666545524332303a206c6f772d6c6576656c2063616c6c206661696c6564815250856001600160a01b031661187b9092919063ffffffff16565b8051909150156112855780806020019051602081101561168e57600080fd5b50516112855760405162461bcd60e51b815260040180806020018281038252602a815260200180611ac0602a913960400191505060405180910390fd5b6000828201838110156113d4576040805162461bcd60e51b815260206004820152601b60248201527f536166654d6174683a206164646974696f6e206f766572666c6f770000000000604482015290519081900360640190fd5b600081836117b15760405162461bcd60e51b81526004018080602001828103825283818151815260200191508051906020019080838360005b8381101561177657818101518382015260200161175e565b50505050905090810190601f1680156117a35780820380516001836020036101000a031916815260200191505b509250505060405180910390fd5b5060008385816117bd57fe5b0495945050505050565b604080516001600160a01b0380861660248301528416604482015260648082018490528251808303909101815260849091019091526020810180516001600160e01b03166323b872dd60e01b17905261137590859061161a565b600081848411156118735760405162461bcd60e51b815260206004820181815283516024840152835190928392604490910191908501908083836000831561177657818101518382015260200161175e565b505050900390565b606061188a8484600085611892565b949350505050565b606061189d856119ff565b6118ee576040805162461bcd60e51b815260206004820152601d60248201527f416464726573733a2063616c6c20746f206e6f6e2d636f6e7472616374000000604482015290519081900360640190fd5b60006060866001600160a01b031685876040518082805190602001908083835b6020831061192d5780518252601f19909201916020918201910161190e565b6001836020036101000a03801982511681845116808217855250505050505090500191505060006040518083038185875af1925050503d806000811461198f576040519150601f19603f3d011682016040523d82523d6000602084013e611994565b606091505b509150915081156119a857915061188a9050565b8051156119b85780518082602001fd5b60405162461bcd60e51b815260206004820181815286516024840152865187939192839260440191908501908083836000831561177657818101518382015260200161175e565b6000813f7fc5d2460186f7233c927e7db2dcc703c0e500b653ca82273b7bfad8045d85a47081811480159061188a57505015159291505056fe5265656e7472616e637947756172643a207265656e7472616e742063616c6c004f776e61626c653a206e6577206f776e657220697320746865207a65726f2061646472657373536166654d6174683a206d756c7469706c69636174696f6e206f766572666c6f774f776e61626c653a2063616c6c6572206973206e6f7420746865206f776e65725361666545524332303a204552433230206f7065726174696f6e20646964206e6f7420737563636565645361666545524332303a20617070726f76652066726f6d206e6f6e2d7a65726f20746f206e6f6e2d7a65726f20616c6c6f77616e63654f70657261746f723a2063616c6c6572206973206e6f7420746865206f70657261746f72a26469706673582212204e454a4b674acdeb8bd11a286c1bc20a01fc9f2bdfe9da0807aff2ed7537f59a64736f6c634300060c0033",
  "linkReferences": {},
  "deployedLinkReferences": {}
}